{
  "contractName": "AuditLog",
  "abi": [
    {
      "anonymous": false,
      "inputs": [
        {
          "indexed": true,
          "internalType": "address",
          "name": "user",
          "type": "address"
        },
        {
          "indexed": false,
          "internalType": "string",
          "name": "hash",
          "type": "string"
        },
        {
          "indexed": false,
          "internalType": "string",
          "name": "action",
          "type": "string"
        },
        {
          "indexed": false,
          "internalType": "string",
          "name": "timestamp",
          "type": "string"
        }
      ],
      "name": "LogCreated",
      "type": "event"
    },
    {
      "inputs": [
        {
          "internalType": "uint256",
          "name": "",
          "type": "uint256"
        }
      ],
      "name": "logs",
      "outputs": [
        {
          "internalType": "address",
          "name": "user",
          "type": "address"
        },
        {
          "internalType": "string",
          "name": "hash",
          "type": "string"
        },
        {
          "internalType": "string",
          "name": "action",
          "type": "string"
        },
        {
          "internalType": "string",
          "name": "timestamp",
          "type": "string"
        }
      ],
      "stateMutability": "view",
      "type": "function",
      "constant": true
    },
    {
      "inputs": [
        {
          "internalType": "string",
          "name": "_hash",
          "type": "string"
        },
        {
          "internalType": "string",
          "name": "_action",
          "type": "string"
        },
        {
          "internalType": "string",
          "name": "_timestamp",
          "type": "string"
        }
      ],
      "name": "addLog",
      "outputs": [],
      "stateMutability": "nonpayable",
      "type": "function"
    },
    {
      "inputs": [],
      "name": "getLogs",
      "outputs": [
        {
          "components": [
            {
              "internalType": "address",
              "name": "user",
              "type": "address"
            },
            {
              "internalType": "string",
              "name": "hash",
              "type": "string"
            },
            {
              "internalType": "string",
              "name": "action",
              "type": "string"
            },
            {
              "internalType": "string",
              "name": "timestamp",
              "type": "string"
            }
          ],
          "internalType": "struct AuditLog.Log[]",
          "name": "",
          "type": "tuple[]"
        }
      ],
      "stateMutability": "view",
      "type": "function",
      "constant": true
    }
  ],
  "bytecode": "0x608060405234801561001057600080fd5b50610cd4806100206000396000f3fe608060405234801561001057600080fd5b50600436106100415760003560e01c80631b3f14e514610046578063e79899bd14610062578063fe290ccb14610095575b600080fd5b610060600480360381019061005b919061078f565b6100b3565b005b61007c60048036038101906100779190610826565b61020c565b60405161008c94939291906109d9565b60405180910390f35b61009d610404565b6040516100aa9190610a33565b60405180910390f35b600060405180608001604052803373ffffffffffffffffffffffffffffffffffffffff16815260200185815260200184815260200183815250908060018154018082558091505060019003906000526020600020906004020160009091909190915060008201518160000160006101000a81548173ffffffffffffffffffffffffffffffffffffffff021916908373ffffffffffffffffffffffffffffffffffffffff160217905550602082015181600101908051906020019061017892919061066f565b50604082015181600201908051906020019061019592919061066f565b5060608201518160030190805190602001906101b292919061066f565b5050503373ffffffffffffffffffffffffffffffffffffffff167fd2e953a81085c2dd36ff860c41da4b38ac845e6e3e945e6fc7920cdd560c48448484846040516101ff93929190610a55565b60405180910390a2505050565b6000818154811061021c57600080fd5b90600052602060002090600402016000915090508060000160009054906101000a900473ffffffffffffffffffffffffffffffffffffffff169080600101805461026590610be6565b80601f016020809104026020016040519081016040528092919081815260200182805461029190610be6565b80156102de5780601f106102b3576101008083540402835291602001916102de565b820191906000526020600020905b8154815290600101906020018083116102c157829003601f168201915b5050505050908060020180546102f390610be6565b80601f016020809104026020016040519081016040528092919081815260200182805461031f90610be6565b801561036c5780601f106103415761010080835404028352916020019161036c565b820191906000526020600020905b81548152906001019060200180831161034f57829003601f168201915b50505050509080600301805461038190610be6565b80601f01602080910402602001604051908101604052809291908181526020018280546103ad90610be6565b80156103fa5780601f106103cf576101008083540402835291602001916103fa565b820191906000526020600020905b8154815290600101906020018083116103dd57829003601f168201915b5050505050905084565b60606000805480602002602001604051908101604052809291908181526020016000905b8282101561066657838290600052602060002090600402016040518060800160405290816000820160009054906101000a900473ffffffffffffffffffffffffffffffffffffffff1673ffffffffffffffffffffffffffffffffffffffff1673ffffffffffffffffffffffffffffffffffffffff1681526020016001820180546104b190610be6565b80601f01602080910402602001604051908101604052809291908181526020018280546104dd90610be6565b801561052a5780601f106104ff5761010080835404028352916020019161052a565b820191906000526020600020905b81548152906001019060200180831161050d57829003601f168201915b5050505050815260200160028201805461054390610be6565b80601f016020809104026020016040519081016040528092919081815260200182805461056f90610be6565b80156105bc5780601f10610591576101008083540402835291602001916105bc565b820191906000526020600020905b81548152906001019060200180831161059f57829003601f168201915b505050505081526020016003820180546105d590610be6565b80601f016020809104026020016040519081016040528092919081815260200182805461060190610be6565b801561064e5780601f106106235761010080835404028352916020019161064e565b820191906000526020600020905b81548152906001019060200180831161063157829003601f168201915b50505050508152505081526020019060010190610428565b50505050905090565b82805461067b90610be6565b90600052602060002090601f01602090048101928261069d57600085556106e4565b82601f106106b657805160ff19168380011785556106e4565b828001600101855582156106e4579182015b828111156106e35782518255916020019190600101906106c8565b5b5090506106f191906106f5565b5090565b5b8082111561070e5760008160009055506001016106f6565b5090565b600061072561072084610ad2565b610aa1565b90508281526020810184848401111561073d57600080fd5b610748848285610ba4565b509392505050565b600082601f83011261076157600080fd5b8135610771848260208601610712565b91505092915050565b60008135905061078981610c87565b92915050565b6000806000606084860312156107a457600080fd5b600084013567ffffffffffffffff8111156107be57600080fd5b6107ca86828701610750565b935050602084013567ffffffffffffffff8111156107e757600080fd5b6107f386828701610750565b925050604084013567ffffffffffffffff81111561081057600080fd5b61081c86828701610750565b9150509250925092565b60006020828403121561083857600080fd5b60006108468482850161077a565b91505092915050565b600061085b8383610968565b905092915050565b61086c81610b68565b82525050565b61087b81610b68565b82525050565b600061088c82610b12565b6108968185610b35565b9350836020820285016108a885610b02565b8060005b858110156108e457848403895281516108c5858261084f565b94506108d083610b28565b925060208a019950506001810190506108ac565b50829750879550505050505092915050565b600061090182610b1d565b61090b8185610b46565b935061091b818560208601610bb3565b61092481610c76565b840191505092915050565b600061093a82610b1d565b6109448185610b57565b9350610954818560208601610bb3565b61095d81610c76565b840191505092915050565b60006080830160008301516109806000860182610863565b506020830151848203602086015261099882826108f6565b915050604083015184820360408601526109b282826108f6565b915050606083015184820360608601526109cc82826108f6565b9150508091505092915050565b60006080820190506109ee6000830187610872565b8181036020830152610a00818661092f565b90508181036040830152610a14818561092f565b90508181036060830152610a28818461092f565b905095945050505050565b60006020820190508181036000830152610a4d8184610881565b905092915050565b60006060820190508181036000830152610a6f818661092f565b90508181036020830152610a83818561092f565b90508181036040830152610a97818461092f565b9050949350505050565b6000604051905081810181811067ffffffffffffffff82111715610ac857610ac7610c47565b5b8060405250919050565b600067ffffffffffffffff821115610aed57610aec610c47565b5b601f19601f8301169050602081019050919050565b6000819050602082019050919050565b600081519050919050565b600081519050919050565b6000602082019050919050565b600082825260208201905092915050565b600082825260208201905092915050565b600082825260208201905092915050565b6000610b7382610b7a565b9050919050565b600073ffffffffffffffffffffffffffffffffffffffff82169050919050565b6000819050919050565b82818337600083830152505050565b60005b83811015610bd1578082015181840152602081019050610bb6565b83811115610be0576000848401525b50505050565b60006002820490506001821680610bfe57607f821691505b60208210811415610c1257610c11610c18565b5b50919050565b7f4e487b7100000000000000000000000000000000000000000000000000000000600052602260045260246000fd5b7f4e487b7100000000000000000000000000000000000000000000000000000000600052604160045260246000fd5b6000601f19601f8301169050919050565b610c9081610b9a565b8114610c9b57600080fd5b5056fea264697066735822122057be9e98f44f891dd933f6308bb63c1e117c79ff8fb6d56f880b4d9c706bdf6c64736f6c63430008000033",
  "immutableReferences": {},
  "source": "// contracts/AuditLog.sol\r\npragma solidity ^0.8.0;\r\n\r\ncontract AuditLog {\r\n    struct Log {\r\n        address user;\r\n        string hash;\r\n        string action;\r\n        string timestamp;\r\n    }\r\n\r\n    Log[] public logs;\r\n\r\n    event LogCreated(address indexed user, string hash, string action, string timestamp);\r\n\r\n    function addLog(string memory _hash, string memory _action, string memory _timestamp) public {\r\n        logs.push(Log(msg.sender, _hash, _action, _timestamp));\r\n        emit LogCreated(msg.sender, _hash, _action, _timestamp);\r\n    }\r\n\r\n    function getLogs() public view returns (Log[] memory) {\r\n        return logs;\r\n    }\r\n}\r\n",
  "sourcePath": "D:\\pac_hack\\contracts\\AuditLog.sol",
  "compiler": {
    "name": "solc",
    "version": "0.8.0+commit.c7dfd78e.Emscripten.clang"
  },
  "schemaVersion": "3.4.16",
  "updatedAt": "2024-09-11T19:10:57.289Z",
  "networkType": "ethereum",
  "devdoc": {
    "kind": "dev",
    "methods": {},
    "version": 1
  },
  "userdoc": {
    "kind": "user",
    "methods": {},
    "version": 1
  }
}