{
  "contractName": "AuditLog",
  "abi": [
    {
      "anonymous": false,
      "inputs": [
        {
          "indexed": true,
          "internalType": "string",
          "name": "hash",
          "type": "string"
        },
        {
          "indexed": false,
          "internalType": "string",
          "name": "action",
          "type": "string"
        },
        {
          "indexed": false,
          "internalType": "string",
          "name": "timestamp",
          "type": "string"
        }
      ],
      "name": "LogCreated",
      "type": "event"
    },
    {
      "inputs": [
        {
          "internalType": "uint256",
          "name": "",
          "type": "uint256"
        }
      ],
      "name": "logs",
      "outputs": [
        {
          "internalType": "string",
          "name": "hash",
          "type": "string"
        },
        {
          "internalType": "string",
          "name": "action",
          "type": "string"
        },
        {
          "internalType": "string",
          "name": "timestamp",
          "type": "string"
        }
      ],
      "stateMutability": "view",
      "type": "function",
      "constant": true
    },
    {
      "inputs": [
        {
          "internalType": "string",
          "name": "_hash",
          "type": "string"
        },
        {
          "internalType": "string",
          "name": "_action",
          "type": "string"
        },
        {
          "internalType": "string",
          "name": "_timestamp",
          "type": "string"
        }
      ],
      "name": "addLog",
      "outputs": [],
      "stateMutability": "nonpayable",
      "type": "function"
    },
    {
      "inputs": [],
      "name": "getLogs",
      "outputs": [
        {
          "components": [
            {
              "internalType": "string",
              "name": "hash",
              "type": "string"
            },
            {
              "internalType": "string",
              "name": "action",
              "type": "string"
            },
            {
              "internalType": "string",
              "name": "timestamp",
              "type": "string"
            }
          ],
          "internalType": "struct AuditLog.Log[]",
          "name": "",
          "type": "tuple[]"
        }
      ],
      "stateMutability": "view",
      "type": "function",
      "constant": true
    },
    {
      "inputs": [],
      "name": "getLogsCount",
      "outputs": [
        {
          "internalType": "uint256",
          "name": "",
          "type": "uint256"
        }
      ],
      "stateMutability": "view",
      "type": "function",
      "constant": true
    }
  ],
  "bytecode": "0x608060405234801561001057600080fd5b50610c1d806100206000396000f3fe608060405234801561001057600080fd5b506004361061004c5760003560e01c80631b3f14e514610051578063cc9e300f1461006d578063e79899bd1461008b578063fe290ccb146100bd575b600080fd5b61006b600480360381019061006691906106e1565b6100db565b005b6100756101ce565b60405161008291906109f6565b60405180910390f35b6100a560048036038101906100a09190610778565b6101da565b6040516100b4939291906109aa565b60405180910390f35b6100c56103ac565b6040516100d29190610951565b60405180910390f35b60006040518060600160405280858152602001848152602001838152509080600181540180825580915050600190039060005260206000209060030201600090919091909150600082015181600001908051906020019061013d9291906105c1565b50602082015181600101908051906020019061015a9291906105c1565b5060408201518160020190805190602001906101779291906105c1565b50505082604051610188919061093a565b60405180910390207fb2b8ec6b49fdc38e78cf7c7671620a0989cff2126c8225a0a0cb0ac0c98f019c83836040516101c1929190610973565b60405180910390a2505050565b60008080549050905090565b600081815481106101ea57600080fd5b906000526020600020906003020160009150905080600001805461020d90610b2f565b80601f016020809104026020016040519081016040528092919081815260200182805461023990610b2f565b80156102865780601f1061025b57610100808354040283529160200191610286565b820191906000526020600020905b81548152906001019060200180831161026957829003601f168201915b50505050509080600101805461029b90610b2f565b80601f01602080910402602001604051908101604052809291908181526020018280546102c790610b2f565b80156103145780601f106102e957610100808354040283529160200191610314565b820191906000526020600020905b8154815290600101906020018083116102f757829003601f168201915b50505050509080600201805461032990610b2f565b80601f016020809104026020016040519081016040528092919081815260200182805461035590610b2f565b80156103a25780601f10610377576101008083540402835291602001916103a2565b820191906000526020600020905b81548152906001019060200180831161038557829003601f168201915b5050505050905083565b60606000805480602002602001604051908101604052809291908181526020016000905b828210156105b8578382906000526020600020906003020160405180606001604052908160008201805461040390610b2f565b80601f016020809104026020016040519081016040528092919081815260200182805461042f90610b2f565b801561047c5780601f106104515761010080835404028352916020019161047c565b820191906000526020600020905b81548152906001019060200180831161045f57829003601f168201915b5050505050815260200160018201805461049590610b2f565b80601f01602080910402602001604051908101604052809291908181526020018280546104c190610b2f565b801561050e5780601f106104e35761010080835404028352916020019161050e565b820191906000526020600020905b8154815290600101906020018083116104f157829003601f168201915b5050505050815260200160028201805461052790610b2f565b80601f016020809104026020016040519081016040528092919081815260200182805461055390610b2f565b80156105a05780601f10610575576101008083540402835291602001916105a0565b820191906000526020600020905b81548152906001019060200180831161058357829003601f168201915b505050505081525050815260200190600101906103d0565b50505050905090565b8280546105cd90610b2f565b90600052602060002090601f0160209004810192826105ef5760008555610636565b82601f1061060857805160ff1916838001178555610636565b82800160010185558215610636579182015b8281111561063557825182559160200191906001019061061a565b5b5090506106439190610647565b5090565b5b80821115610660576000816000905550600101610648565b5090565b600061067761067284610a42565b610a11565b90508281526020810184848401111561068f57600080fd5b61069a848285610aed565b509392505050565b600082601f8301126106b357600080fd5b81356106c3848260208601610664565b91505092915050565b6000813590506106db81610bd0565b92915050565b6000806000606084860312156106f657600080fd5b600084013567ffffffffffffffff81111561071057600080fd5b61071c868287016106a2565b935050602084013567ffffffffffffffff81111561073957600080fd5b610745868287016106a2565b925050604084013567ffffffffffffffff81111561076257600080fd5b61076e868287016106a2565b9150509250925092565b60006020828403121561078a57600080fd5b6000610798848285016106cc565b91505092915050565b60006107ad83836108cd565b905092915050565b60006107c082610a82565b6107ca8185610aa5565b9350836020820285016107dc85610a72565b8060005b8581101561081857848403895281516107f985826107a1565b945061080483610a98565b925060208a019950506001810190506107e0565b50829750879550505050505092915050565b600061083582610a8d565b61083f8185610ab6565b935061084f818560208601610afc565b61085881610bbf565b840191505092915050565b600061086e82610a8d565b6108788185610ac7565b9350610888818560208601610afc565b61089181610bbf565b840191505092915050565b60006108a782610a8d565b6108b18185610ad8565b93506108c1818560208601610afc565b80840191505092915050565b600060608301600083015184820360008601526108ea828261082a565b91505060208301518482036020860152610904828261082a565b9150506040830151848203604086015261091e828261082a565b9150508091505092915050565b61093481610ae3565b82525050565b6000610946828461089c565b915081905092915050565b6000602082019050818103600083015261096b81846107b5565b905092915050565b6000604082019050818103600083015261098d8185610863565b905081810360208301526109a18184610863565b90509392505050565b600060608201905081810360008301526109c48186610863565b905081810360208301526109d88185610863565b905081810360408301526109ec8184610863565b9050949350505050565b6000602082019050610a0b600083018461092b565b92915050565b6000604051905081810181811067ffffffffffffffff82111715610a3857610a37610b90565b5b8060405250919050565b600067ffffffffffffffff821115610a5d57610a5c610b90565b5b601f19601f8301169050602081019050919050565b6000819050602082019050919050565b600081519050919050565b600081519050919050565b6000602082019050919050565b600082825260208201905092915050565b600082825260208201905092915050565b600082825260208201905092915050565b600081905092915050565b6000819050919050565b82818337600083830152505050565b60005b83811015610b1a578082015181840152602081019050610aff565b83811115610b29576000848401525b50505050565b60006002820490506001821680610b4757607f821691505b60208210811415610b5b57610b5a610b61565b5b50919050565b7f4e487b7100000000000000000000000000000000000000000000000000000000600052602260045260246000fd5b7f4e487b7100000000000000000000000000000000000000000000000000000000600052604160045260246000fd5b6000601f19601f8301169050919050565b610bd981610ae3565b8114610be457600080fd5b5056fea264697066735822122019452f5377513ef3745bd6a697f45f71cff0cc2ae61920944ba342a6d9ee8cf964736f6c63430008000033",
  "immutableReferences": {},
  "source": "// SPDX-License-Identifier: MIT\r\n\r\npragma solidity ^0.8.0;\r\n\r\ncontract AuditLog {\r\n    struct Log {\r\n        string hash;\r\n        string action;\r\n        string timestamp;\r\n    }\r\n\r\n    Log[] public logs;\r\n\r\n    event LogCreated(string indexed hash, string action, string timestamp);\r\n\r\n    function addLog(string memory _hash, string memory _action, string memory _timestamp) public {\r\n        logs.push(Log(_hash, _action, _timestamp));\r\n        \r\n        emit LogCreated(_hash, _action, _timestamp);\r\n    }\r\n\r\n    function getLogs() public view returns (Log[] memory) {\r\n        return logs;\r\n    }\r\n\r\n    function getLogsCount() public view returns (uint) {\r\n        return logs.length;\r\n    }\r\n}",
  "sourcePath": "D:\\pac_hack\\contracts\\AuditLog.sol",
  "compiler": {
    "name": "solc",
    "version": "0.8.0+commit.c7dfd78e.Emscripten.clang"
  },
  "schemaVersion": "3.4.16",
  "updatedAt": "2024-09-12T12:10:55.576Z",
  "networkType": "ethereum",
  "devdoc": {
    "kind": "dev",
    "methods": {},
    "version": 1
  },
  "userdoc": {
    "kind": "user",
    "methods": {},
    "version": 1
  }
}