{
  "contractName": "AuditLog",
  "abi": [
    {
      "anonymous": false,
      "inputs": [
        {
          "indexed": true,
          "internalType": "string",
          "name": "userId",
          "type": "string"
        },
        {
          "indexed": true,
          "internalType": "string",
          "name": "hash",
          "type": "string"
        },
        {
          "indexed": false,
          "internalType": "string",
          "name": "action",
          "type": "string"
        },
        {
          "indexed": false,
          "internalType": "string",
          "name": "timestamp",
          "type": "string"
        }
      ],
      "name": "LogCreated",
      "type": "event"
    },
    {
      "inputs": [
        {
          "internalType": "uint256",
          "name": "",
          "type": "uint256"
        }
      ],
      "name": "logs",
      "outputs": [
        {
          "internalType": "string",
          "name": "userId",
          "type": "string"
        },
        {
          "internalType": "string",
          "name": "hash",
          "type": "string"
        },
        {
          "internalType": "string",
          "name": "action",
          "type": "string"
        },
        {
          "internalType": "string",
          "name": "timestamp",
          "type": "string"
        }
      ],
      "stateMutability": "view",
      "type": "function",
      "constant": true
    },
    {
      "inputs": [
        {
          "internalType": "string",
          "name": "_userId",
          "type": "string"
        },
        {
          "internalType": "string",
          "name": "_hash",
          "type": "string"
        },
        {
          "internalType": "string",
          "name": "_action",
          "type": "string"
        },
        {
          "internalType": "string",
          "name": "_timestamp",
          "type": "string"
        }
      ],
      "name": "addLog",
      "outputs": [],
      "stateMutability": "nonpayable",
      "type": "function"
    },
    {
      "inputs": [],
      "name": "getLogs",
      "outputs": [
        {
          "components": [
            {
              "internalType": "string",
              "name": "userId",
              "type": "string"
            },
            {
              "internalType": "string",
              "name": "hash",
              "type": "string"
            },
            {
              "internalType": "string",
              "name": "action",
              "type": "string"
            },
            {
              "internalType": "string",
              "name": "timestamp",
              "type": "string"
            }
          ],
          "internalType": "struct AuditLog.Log[]",
          "name": "",
          "type": "tuple[]"
        }
      ],
      "stateMutability": "view",
      "type": "function",
      "constant": true
    },
    {
      "inputs": [],
      "name": "getLogsCount",
      "outputs": [
        {
          "internalType": "uint256",
          "name": "",
          "type": "uint256"
        }
      ],
      "stateMutability": "view",
      "type": "function",
      "constant": true
    },
    {
      "inputs": [
        {
          "internalType": "string",
          "name": "_userId",
          "type": "string"
        }
      ],
      "name": "getUserLogs",
      "outputs": [
        {
          "components": [
            {
              "internalType": "string",
              "name": "userId",
              "type": "string"
            },
            {
              "internalType": "string",
              "name": "hash",
              "type": "string"
            },
            {
              "internalType": "string",
              "name": "action",
              "type": "string"
            },
            {
              "internalType": "string",
              "name": "timestamp",
              "type": "string"
            }
          ],
          "internalType": "struct AuditLog.Log[]",
          "name": "",
          "type": "tuple[]"
        }
      ],
      "stateMutability": "view",
      "type": "function",
      "constant": true
    }
  ],
  "bytecode": "0x608060405234801561001057600080fd5b506114a8806100206000396000f3fe608060405234801561001057600080fd5b50600436106100575760003560e01c806357e185311461005c5780638af391a31461008c578063cc9e300f146100a8578063e79899bd146100c6578063fe290ccb146100f9575b600080fd5b61007660048036038101906100719190610dad565b610117565b604051610083919061113a565b60405180910390f35b6100a660048036038101906100a19190610dee565b610625565b005b6100b0610752565b6040516100bd91906111f4565b60405180910390f35b6100e060048036038101906100db9190610eb1565b61075e565b6040516100f09493929190611193565b60405180910390f35b6101016109be565b60405161010e919061113a565b60405180910390f35b60606000805b6000805490508110156101ea578360405160200161013b919061110c565b604051602081830303815290604052805190602001206000828154811061018b577f4e487b7100000000000000000000000000000000000000000000000000000000600052603260045260246000fd5b90600052602060002090600402016000016040516020016101ac9190611123565b6040516020818303038152906040528051906020012014156101d75781806101d390611374565b9250505b80806101e290611374565b91505061011d565b5060008167ffffffffffffffff81111561022d577f4e487b7100000000000000000000000000000000000000000000000000000000600052604160045260246000fd5b60405190808252806020026020018201604052801561026657816020015b610253610c65565b81526020019060019003908161024b5790505b5090506000805b600080549050811015610619578560405160200161028b919061110c565b60405160208183030381529060405280519060200120600082815481106102db577f4e487b7100000000000000000000000000000000000000000000000000000000600052603260045260246000fd5b90600052602060002090600402016000016040516020016102fc9190611123565b6040516020818303038152906040528051906020012014156106065760008181548110610352577f4e487b7100000000000000000000000000000000000000000000000000000000600052603260045260246000fd5b906000526020600020906004020160405180608001604052908160008201805461037b90611342565b80601f01602080910402602001604051908101604052809291908181526020018280546103a790611342565b80156103f45780601f106103c9576101008083540402835291602001916103f4565b820191906000526020600020905b8154815290600101906020018083116103d757829003601f168201915b5050505050815260200160018201805461040d90611342565b80601f016020809104026020016040519081016040528092919081815260200182805461043990611342565b80156104865780601f1061045b57610100808354040283529160200191610486565b820191906000526020600020905b81548152906001019060200180831161046957829003601f168201915b5050505050815260200160028201805461049f90611342565b80601f01602080910402602001604051908101604052809291908181526020018280546104cb90611342565b80156105185780601f106104ed57610100808354040283529160200191610518565b820191906000526020600020905b8154815290600101906020018083116104fb57829003601f168201915b5050505050815260200160038201805461053190611342565b80601f016020809104026020016040519081016040528092919081815260200182805461055d90611342565b80156105aa5780601f1061057f576101008083540402835291602001916105aa565b820191906000526020600020905b81548152906001019060200180831161058d57829003601f168201915b5050505050815250508383815181106105ec577f4e487b7100000000000000000000000000000000000000000000000000000000600052603260045260246000fd5b6020026020010181905250818061060290611374565b9250505b808061061190611374565b91505061026d565b50819350505050919050565b60006040518060800160405280868152602001858152602001848152602001838152509080600181540180825580915050600190039060005260206000209060040201600090919091909150600082015181600001908051906020019061068d929190610c8d565b5060208201518160010190805190602001906106aa929190610c8d565b5060408201518160020190805190602001906106c7929190610c8d565b5060608201518160030190805190602001906106e4929190610c8d565b505050826040516106f5919061110c565b60405180910390208460405161070b919061110c565b60405180910390207fb0b844b0fa00549a5aa0fa86c37169444b22d61999f9287146f892305f0ea6f2848460405161074492919061115c565b60405180910390a350505050565b60008080549050905090565b6000818154811061076e57600080fd5b906000526020600020906004020160009150905080600001805461079190611342565b80601f01602080910402602001604051908101604052809291908181526020018280546107bd90611342565b801561080a5780601f106107df5761010080835404028352916020019161080a565b820191906000526020600020905b8154815290600101906020018083116107ed57829003601f168201915b50505050509080600101805461081f90611342565b80601f016020809104026020016040519081016040528092919081815260200182805461084b90611342565b80156108985780601f1061086d57610100808354040283529160200191610898565b820191906000526020600020905b81548152906001019060200180831161087b57829003601f168201915b5050505050908060020180546108ad90611342565b80601f01602080910402602001604051908101604052809291908181526020018280546108d990611342565b80156109265780601f106108fb57610100808354040283529160200191610926565b820191906000526020600020905b81548152906001019060200180831161090957829003601f168201915b50505050509080600301805461093b90611342565b80601f016020809104026020016040519081016040528092919081815260200182805461096790611342565b80156109b45780601f10610989576101008083540402835291602001916109b4565b820191906000526020600020905b81548152906001019060200180831161099757829003601f168201915b5050505050905084565b60606000805480602002602001604051908101604052809291908181526020016000905b82821015610c5c5783829060005260206000209060040201604051806080016040529081600082018054610a1590611342565b80601f0160208091040260200160405190810160405280929190818152602001828054610a4190611342565b8015610a8e5780601f10610a6357610100808354040283529160200191610a8e565b820191906000526020600020905b815481529060010190602001808311610a7157829003601f168201915b50505050508152602001600182018054610aa790611342565b80601f0160208091040260200160405190810160405280929190818152602001828054610ad390611342565b8015610b205780601f10610af557610100808354040283529160200191610b20565b820191906000526020600020905b815481529060010190602001808311610b0357829003601f168201915b50505050508152602001600282018054610b3990611342565b80601f0160208091040260200160405190810160405280929190818152602001828054610b6590611342565b8015610bb25780601f10610b8757610100808354040283529160200191610bb2565b820191906000526020600020905b815481529060010190602001808311610b9557829003601f168201915b50505050508152602001600382018054610bcb90611342565b80601f0160208091040260200160405190810160405280929190818152602001828054610bf790611342565b8015610c445780601f10610c1957610100808354040283529160200191610c44565b820191906000526020600020905b815481529060010190602001808311610c2757829003601f168201915b505050505081525050815260200190600101906109e2565b50505050905090565b6040518060800160405280606081526020016060815260200160608152602001606081525090565b828054610c9990611342565b90600052602060002090601f016020900481019282610cbb5760008555610d02565b82601f10610cd457805160ff1916838001178555610d02565b82800160010185558215610d02579182015b82811115610d01578251825591602001919060010190610ce6565b5b509050610d0f9190610d13565b5090565b5b80821115610d2c576000816000905550600101610d14565b5090565b6000610d43610d3e84611240565b61120f565b905082815260208101848484011115610d5b57600080fd5b610d66848285611300565b509392505050565b600082601f830112610d7f57600080fd5b8135610d8f848260208601610d30565b91505092915050565b600081359050610da78161145b565b92915050565b600060208284031215610dbf57600080fd5b600082013567ffffffffffffffff811115610dd957600080fd5b610de584828501610d6e565b91505092915050565b60008060008060808587031215610e0457600080fd5b600085013567ffffffffffffffff811115610e1e57600080fd5b610e2a87828801610d6e565b945050602085013567ffffffffffffffff811115610e4757600080fd5b610e5387828801610d6e565b935050604085013567ffffffffffffffff811115610e7057600080fd5b610e7c87828801610d6e565b925050606085013567ffffffffffffffff811115610e9957600080fd5b610ea587828801610d6e565b91505092959194509250565b600060208284031215610ec357600080fd5b6000610ed184828501610d98565b91505092915050565b6000610ee68383611085565b905092915050565b6000610ef982611295565b610f0381856112b8565b935083602082028501610f1585611270565b8060005b85811015610f515784840389528151610f328582610eda565b9450610f3d836112ab565b925060208a01995050600181019050610f19565b50829750879550505050505092915050565b6000610f6e826112a0565b610f7881856112c9565b9350610f8881856020860161130f565b610f918161144a565b840191505092915050565b6000610fa7826112a0565b610fb181856112da565b9350610fc181856020860161130f565b610fca8161144a565b840191505092915050565b6000610fe0826112a0565b610fea81856112eb565b9350610ffa81856020860161130f565b80840191505092915050565b6000815461101381611342565b61101d81866112eb565b9450600182166000811461103857600181146110495761107c565b60ff1983168652818601935061107c565b61105285611280565b60005b8381101561107457815481890152600182019150602081019050611055565b838801955050505b50505092915050565b600060808301600083015184820360008601526110a28282610f63565b915050602083015184820360208601526110bc8282610f63565b915050604083015184820360408601526110d68282610f63565b915050606083015184820360608601526110f08282610f63565b9150508091505092915050565b611106816112f6565b82525050565b60006111188284610fd5565b915081905092915050565b600061112f8284611006565b915081905092915050565b600060208201905081810360008301526111548184610eee565b905092915050565b600060408201905081810360008301526111768185610f9c565b9050818103602083015261118a8184610f9c565b90509392505050565b600060808201905081810360008301526111ad8187610f9c565b905081810360208301526111c18186610f9c565b905081810360408301526111d58185610f9c565b905081810360608301526111e98184610f9c565b905095945050505050565b600060208201905061120960008301846110fd565b92915050565b6000604051905081810181811067ffffffffffffffff821117156112365761123561141b565b5b8060405250919050565b600067ffffffffffffffff82111561125b5761125a61141b565b5b601f19601f8301169050602081019050919050565b6000819050602082019050919050565b60008190508160005260206000209050919050565b600081519050919050565b600081519050919050565b6000602082019050919050565b600082825260208201905092915050565b600082825260208201905092915050565b600082825260208201905092915050565b600081905092915050565b6000819050919050565b82818337600083830152505050565b60005b8381101561132d578082015181840152602081019050611312565b8381111561133c576000848401525b50505050565b6000600282049050600182168061135a57607f821691505b6020821081141561136e5761136d6113ec565b5b50919050565b600061137f826112f6565b91507fffffffffffffffffffffffffffffffffffffffffffffffffffffffffffffffff8214156113b2576113b16113bd565b5b600182019050919050565b7f4e487b7100000000000000000000000000000000000000000000000000000000600052601160045260246000fd5b7f4e487b7100000000000000000000000000000000000000000000000000000000600052602260045260246000fd5b7f4e487b7100000000000000000000000000000000000000000000000000000000600052604160045260246000fd5b6000601f19601f8301169050919050565b611464816112f6565b811461146f57600080fd5b5056fea2646970667358221220db36308f677290560539de67a445567e107b53603bd0b00b92bc20d35501d02164736f6c63430008000033",
  "immutableReferences": {},
  "source": "// SPDX-License-Identifier: MIT\r\n\r\npragma solidity ^0.8.0;\r\n\r\ncontract AuditLog {\r\n    struct Log {\r\n        string userId;\r\n        string hash;\r\n        string action;\r\n        string timestamp;\r\n    }\r\n\r\n    Log[] public logs;\r\n\r\n    event LogCreated(string indexed userId, string indexed hash, string action, string timestamp);\r\n\r\n    function addLog(string memory _userId, string memory _hash, string memory _action, string memory _timestamp) public {\r\n        logs.push(Log(_userId, _hash, _action, _timestamp));\r\n        \r\n        emit LogCreated(_userId, _hash, _action, _timestamp);\r\n    }\r\n\r\n    function getLogs() public view returns (Log[] memory) {\r\n        return logs;\r\n    }\r\n\r\n    function getLogsCount() public view returns (uint) {\r\n        return logs.length;\r\n    }\r\n\r\n    function getUserLogs(string memory _userId) public view returns (Log[] memory) {\r\n        uint count = 0;\r\n        for (uint i = 0; i < logs.length; i++) {\r\n            if (keccak256(abi.encodePacked(logs[i].userId)) == keccak256(abi.encodePacked(_userId))) {\r\n                count++;\r\n            }\r\n        }\r\n\r\n        Log[] memory userLogs = new Log[](count);\r\n        uint index = 0;\r\n        for (uint i = 0; i < logs.length; i++) {\r\n            if (keccak256(abi.encodePacked(logs[i].userId)) == keccak256(abi.encodePacked(_userId))) {\r\n                userLogs[index] = logs[i];\r\n                index++;\r\n            }\r\n        }\r\n\r\n        return userLogs;\r\n    }\r\n}",
  "sourcePath": "D:\\pac_hack\\contracts\\AuditLog.sol",
  "compiler": {
    "name": "solc",
    "version": "0.8.0+commit.c7dfd78e.Emscripten.clang"
  },
  "schemaVersion": "3.4.16",
  "updatedAt": "2024-09-13T13:53:50.603Z",
  "networkType": "ethereum",
  "devdoc": {
    "kind": "dev",
    "methods": {},
    "version": 1
  },
  "userdoc": {
    "kind": "user",
    "methods": {},
    "version": 1
  }
}